:1000000083177D3084007E300A128A110D200A1277
:100010008A1183010A128A11152864008001840A5A
:1000200004060319003404060E2803108316031374
:100030000030031801308800F83086000A128A1157
:10004000C1270A128A110C3083120313F1007108C0
:10005000F3000130F20080300A128A118A270A1256
:100060008A118C300A128A1153270A128A118312BC
:10007000031306108614061586193F2840284B28BE
:100080004128861D44284528412831300A128A110A
:100090001C270A128A1183120313061A50285128AA
:1000A0005C285228061E55285628522834300A1239
:1000B0008A111C270A128A1183120313861A6128D7
:1000C00062286D286328861E6628672863283730D3
:1000D0000A128A111C270A128A1183120313061BA3
:1000E000722873287E287428061F77287828742899
:1000F0002A300A128A111C270A128A11831203134A
:1001000006148610061586198628872892288828BE
:10011000861D8B288C28882832300A128A111C27C9
:100120000A128A1183120313061A97289828A32803
:100130009928061E9C289D28992835300A128A1174
:100140001C270A128A1183120313861AA828A928C9
:10015000B428AA28861EAD28AE28AA2838300A124C
:100160008A111C270A128A1183120313061BB9284D
:10017000BA28C528BB28061FBE28BF28BB28303098
:100180000A128A111C270A128A11831203130614F9
:10019000861406118619CD28CE28D928CF28861D89
:1001A000D228D328CF2833300A128A111C270A12EA
:1001B0008A1183120313061ADE28DF28EA28E028B2
:1001C000061EE328E428E02836300A128A111C278C
:1001D0000A128A1183120313861AEF28F028FB28CB
:1001E000F128861EF428F528F12839300A128A11E0
:1001F0001C270A128A1183120313061B00290129E6
:100200000C290229061F05290629022923300A1272
:100210008A111C270A128A1131280A128A11002811
:100E0000FE00FE1F082F83137E18831700080800BA
:100E10000408FE0007308A007E088207003445344B
:100E20004E345434453452344534443420344B34F5
:100E3000453459343A340034FA000808FB007B0882
:100E4000F0000F30FB007B08F0057A088313F039BF
:100E50007004880088140814F930FB006400FB0B50
:100E60002E2F322F640083120313881008107A0883
:100E70008313FB0003300310FB0DFF3E031D3B2FCC
:100E800003107B0DF0397004880088140814F930C1
:100E9000FB006400FB0B492F4D2F640083120313EA
:100EA00088100810080083120313FA000808FB00DA
:100EB0007B08F0000F30FB007B08F0057A088313F5
:100EC000F0397004880088140810F930FB006400C1
:100ED000FB0B672F6B2F64008312031388107A08B3
:100EE0008313FB0003300310FB0DFF3E031D732F24
:100EF00003107B0DF0397004880088140810F93055
:100F0000FB006400FB0B812F852F64008312031309
:100F100088100800F4000030F5000030F600AE2F15
:100F2000750874070A128A1153270A128A1183124C
:100F300003137208831375070A128A1109270A120C
:100F40008A110A128A111C270A128A1183120313AA
:100F50000130F5070318F60A0030F607730883130B
:100F6000F700F8017808803AF9007608803A7902AB
:100F7000031DBC2F750877020318BF2FC02F902FB9
:100F8000080002300A128A1153270A128A112830E7
:100F90000A128A1153270A128A1106300A128A117C
:100FA00053270A128A110C300A128A1153270A1287
:100FB0008A1101300A128A1153270A128A11080075
:00000001FF
