:100000000A128A11AB2E00308A000408840A820783
:10001000003450344934433431343634463438347F
:10002000373437344134203453344534523449342E
:1000300041344C34203454344534533454340A3429
:100040000D340D3400342034203420342034203456
:100050002034203420342034203420342034203400
:1000600020342034203400342D342D34733465345E
:100070007234693461346C3420342034743465341F
:0A008000733474342D342D34003431
:100D5600FD0183010A128A118F2FB12E831203130C
:100D66008C1EB62EB72EB12E8C121A08BA2E08007B
:100D7600F0007008831203139900C12E0C1EC42EB6
:100D8600C52EC12E0C1208002030831603139800BE
:100D960090308312031398001130831603139900C1
:100DA600831203138C120C120800DA2EDA2E01308D
:100DB600F0020030031CF103F102FF307106031D3F
:100DC600E62EFF307006031DE92EEA2EDA2EEB2EF4
:100DD600080038300A128A1105270A128A110630CD
:100DE6000A128A1105270A128A110C300A128A1170
:100DF60005270A128A1101300A128A1105270A12DA
:100E06008A110800F20072088312031388008716FD
:100E160007127D30F0000030F1000A128A11D82640
:100E26000A128A118312031387127D30F0000030F4
:100E3600F1000A128A11D8260A128A110800F20055
:100E4600352F720884000A128A1103200A128A11A9
:100E56000A128A11BB260A128A110130F1007108A2
:100E6600F207352F720884000A128A1103200A122B
:100E76008A110038031D402F412F242F422F0800CE
:100E8600F40074080A128A1105270A128A117308D7
:100E9600831203138800871607167D30F000003092
:100EA600F1000A128A11D8260A128A118312031334
:100EB60087127D30F0000030F1000A128A11D82620
:100EC6000A128A110800FA00FB01802F7B087507B9
:100ED60084000A128A1103200A128A11F80078087F
:100EE600F3007B087A070A128A1143270A128A112D
:100EF6000130F8007808FB07802F7B08F800F9011D
:100F060077087902031D892F76087802031C8C2F37
:100F16008D2F692F8E2F0800831603130712871251
:100F260088010A128A11EC260A128A116430F0002E
:100F36001930F1000A128A11D8260A128A112C30A9
:100F4600FC007C08F5001030F6000030F700803019
:100F56000A128A1166270A128A111B30FC007C08C5
:100F6600F5001030F6000030F700C0300A128A1182
:100F760066270A128A116430F0001930F1000A124D
:100F86008A11D8260A128A1101300A128A110527F7
:100F96000A128A1183160313071387170A128A1176
:100FA600C7260A128A1101300A128A1122270A124A
:100FB6008A11DD2F0A128A11B0260A128A110A1224
:100FC6008A11BB260A128A110C300A128A110527C9
:100FD6000A128A110A128A11B0260A128A11FC0014
:100FE6007C08F30080300A128A1143270A128A11FC
:0A0FF600DD2FDD2F0A128A110028FA
:02400E0032FF7F
:00000001FF
